:02000000512885
:0C000600831224088A00230882000800EE
:0C00120007308312DD00DD0B0C28080015
:10001E00C33083129F0540309F05F03083169F0436
:10002E0083129F172B08D000D00D5010D00D5010FA
:10003E0050089F041F1409209F149F1C282800009D
:10004E0024281F101E08D100D00183161E08D004CC
:06005E000030D10408008F
:10006400FF308312A000FF30A100FF30A200FF3058
:10007400C3309F0540309F05F03083169F048312E0
:060084009F171F14080085
:10008A0003208A110A128000840AA30A0319A40A07
:08009A00D003031D45280800F6
:1000A2008312A501A601A701A801A901AA010E3088
:1000B20083168700E0309100850183129901322076
:1000C20085010730AB000F205008A5005108A6009B
:1000D200A701A8010230DB008630DC009930DD0088
:1000E200DD0B7128DC0B7128DB0B71280030280234
:1000F200031D852800302702031D852802302602B1
:10010200031D8528003025020318892829158A280D
:1001120029110630AB000F205008A5005108A60097
:10012200A701A80100302802031DA12800302702E0
:10013200031DA12802302602031DA128003025023A
:100142000318A528A914A628A9100530AB000F2072
:100152005008A5005108A600A701A80100302802F6
:10016200031DBD2800302702031DBD2802302602D0
:10017200031DBD28003025020318C1282914C228F6
:0C01820029102908831285006228C62875
:02400E00D431AB
:00000001FF
